:1078000013E0A0E0B1E001C01D92A03AB107E1F79A
:1078100084B78093000114BE8091600088618093DA
:107820006000109260008091000181FD05C0E09130
:107830000101F0910201099511248FEF98E09EBF9C
:107840008DBF06D188E080936000FFCF8EBD0DB460
:1078500007FEFDCF0895CF93DF938FEFF7DF5C989E
:10786000C8E1D1E08991F2DF81E0CE31D807D1F7CC
:10787000CFEF8FEFEBDF8EB587FF02C0C150C9F7A6
:10788000DF91CF9108951F93CF93DF93660F771FFA
:10789000881F991F21E52093180180931901709387
:1078A0001A0160931B0110921C0180E58CBDD3DF8F
:1078B000182F882319F05C9A13E018C0CFEF8FEFD0
:1078C000C5DF8EB58E3F19F0C150C9F7F4CFCEE1B8
:1078D000D1E08FEFBBDF8EB5899383E0CE31D8073F
:1078E000C1F78FEFB3DF8FEFB1DF5C9A812FDF91AC
:1078F000CF911F910895A0E0B0E0E0E8FCE35AC208
:1079000000910B0110910C0183E00E31180708F46F
:107910005EC0E0900301F0900401C0910501D09198
:10792000060180900F0199249A94980C9C228694C9
:10793000882D6E01882321F0D694C7948695FACFBE
:107940008FEFC114D104D1F0AF2CBB248A1549F0BC
:1079500060910D0170910E016A0D7B1D80E090E039
:1079600092DFF701FF27EE0FFF1FE25EFE4FE08080
:10797000F18081E0C81AD1088A2DE3CF670182E047
:10798000C81AD108E12CF12C882031F0CC0CDD1C78
:10799000EE1CFF1C8694F8CF6091120170911301C8
:1079A0008091140190911501690D711D811D911D2A
:1079B0006C0D7D1D8E1D9F1D66DF2196D0930601E7
:1079C000C0930501125010930C0100930B0180919C
:1079D000070190910801A0910901B0910A01019756
:1079E000A109B1098093070190930801A0930901AF
:1079F000B0930A01E0910B01F0910C01CF010196C7
:107A000090930C0180930B018081CDB7DEB7ECE041
:107A1000EDC1CF9370DF813610F0875507C08134F8
:107A200010F0875303C0803308F08053C82FC295ED
:107A3000C07F61DF813610F0875507C0813410F0B8
:107A4000875303C0803308F080538C0FCF91089583
:107A5000A0E0B0E0EDE2FDE3B0C120E233E0F901E7
:107A60008FEF93E04E2F421BF999FECF92BD81BD5F
:107A7000F89A50B55F3F39F051930197873F43E043
:107A8000940781F748E0E42FF0E0E05EFC4F1082BD
:107A9000442309F457C12A9A84B18C6284B9549A58
:107AA00083E58CBDCAE08FEFD1DEC150E1F780E401
:107AB000809318011092190110921A0110921B0163
:107AC00010921C0185E980931D01C0E1C4DED82F0E
:107AD0005C9A8FEFBBDED13019F0C150B9F732C1DB
:107AE00081E480931801B7DE882321F05C9A8FEF40
:107AF000ADDEF9CF60E070E0CB01C5DE80915401CE
:107B0000863449F480915801863329F410920E018D
:107B100010920D0117C06091E4027091E50280910E
:107B2000E6029091E70270930E0160930D01ABDEC7
:107B300080915401863409F005C180915801863343
:107B400009F000C180912B0180930F0180912C01DD
:107B500090912D0120910D0130910E01820F931F04
:107B600090930E0180930D0160912E01409134019C
:107B700050913501649F9001659F300D1124280FAD
:107B8000391F309317012093160180912F01909196
:107B90003001A4E096958795AA95E1F7909311019D
:107BA00080931001820F931FA0E0B0E08093120138
:107BB00090931301A0931401B0931501C0E0D0E09D
:107BC0000EE113E0CE01F4E096958795FA95E1F782
:107BD00020911001309111018217930708F09FC086
:107BE0006091160170911701680F791F80E090E095
:107BF0004ADEEC2FEF7080E2E89FF0011124E25E94
:107C0000FE4F8081882309F48AC0853E09F487C02D
:107C1000828D938D009709F482C090930401809324
:107C20000301848D958DA68DB78D80930701909368
:107C30000801A0930901B0930A0110920601109265
:107C4000050110930C0100930B0131E020E0822F1D
:107C500090E0DC01A05EBC4F4C91442351F0DF0169
:107C6000A80FB91F51E08C91481350E035232F5FC6
:107C7000EECF332309F453C0222309F450C0818589
:107C8000853409F04CC08085883409F048C082856D
:107C9000883509F044C04AC06701EFEFCE1ADE0A0A
:107CA000B8DEF7018083BA94F0EACF16F3E0DF067E
:107CB00009F046C04BD020911E0330911F0320587D
:107CC0003F4F30931F0320931E03E0E2EE2EE3E0CC
:107CD000FE2E4091070150910801609109017091B9
:107CE0000A01452B462B472BA1F0B110D5CF03DE5F
:107CF0008A3379F78EDEB82E20910B0130910C017A
:107D00002C5F3F4F30930C0120930B0182DE8823C0
:107D100001F340E2E41643E0F40609F017D021969F
:107D2000C11582E0D80709F04DCF0CC010921F0397
:107D300010921E0370E2E72E73E0F72EB12CC9CF2C
:107D40007601C7CFCDB7DEB7E9E053C0F999FECFD2
:107D500020911E0330911F0383E0F90180935700A7
:107D6000E89507B600FCFDCFA0E2B3E080E090E02C
:107D700061E04D915D91FC01E20FF31F0A016093F8
:107D80005700E895112402968038910591F785E017
:107D9000F90180935700E89507B600FCFDCF81E11B
:107DA00080935700E89508952F923F924F925F92EB
:107DB0006F927F928F929F92AF92BF92CF92DF92FB
:107DC000EF92FF920F931F93CF93DF93CDB7DEB760
:107DD000CA1BDB0B0FB6F894DEBF0FBECDBF0994F4
:107DE0002A88398848885F846E847D848C849B844B
:107DF000AA84B984C884DF80EE80FD800C811B8159
:107E0000AA81B981CE0FD11D0FB6F894DEBF0FBE87
:067E1000CDBFED01089555
:040000030000780081
:00000001FF
