:020000021000EC
:10F0000015E0A0E0B2E001C01D92A032B107E1F727
:10F0100084B78093000214BE809160008861809361
:10F020006000109260008091000281FD05C0E091B7
:10F030000102F0910202199511248FEF91E29EBF17
:10F040008DBF06D188E080936000FFCF8EBD0DB4E8
:10F0500007FEFDCF0895CF93DF938FEFF7DF28985A
:10F06000C8E1D2E08991F2DF82E0CE31D807D1F752
:10F07000CFEF8FEFEBDF8EB587FF02C0C150C9F72E
:10F08000DF91CF9108951F93CF93DF93660F771F82
:10F09000881F991F21E5209318028093190270930D
:10F0A0001A0260931B0210921C0280E58CBDD3DF14
:10F0B000182F882319F0289A13E018C0CFEF8FEF8C
:10F0C000C5DF8EB58E3F19F0C150C9F7F4CFCEE140
:10F0D000D2E08FEFBBDF8EB5899384E0CE31D807C5
:10F0E000C1F78FEFB3DF8FEFB1DF289A812FDF9168
:10F0F000CF911F910895A0E0B0E0E0E8F8EF75C26D
:10F1000000910B0210910C0284E00E31180708F4F4
:10F110005EC0E0900302F0900402C0910502D0911D
:10F12000060280900F0299249A94980C9C2286944F
:10F13000882D6E01882321F0D694C7948695FACF46
:10F140008FEFC114D104D1F0AF2CBB248A1549F044
:10F1500060910D0270910E026A0D7B1D80E090E0BF
:10F1600092DFF701FF27EE0FFF1FE25EFD4FE08009
:10F17000F18081E0C81AD1088A2DE3CF670182E0CF
:10F18000C81AD108E12CF12C882031F0CC0CDD1C00
:10F19000EE1CFF1C8694F8CF60911202709113024E
:10F1A0008091140290911502690D711D811D911DB0
:10F1B0006C0D7D1D8E1D9F1D66DF2196D09306026E
:10F1C000C0930502125010930C0200930B02809121
:10F1D000070290910802A0910902B0910A020197DA
:10F1E000A109B1098093070290930802A093090234
:10F1F000B0930A02E0910B02F0910C02CF0101964C
:10F2000090930C0280930B028081CDB7DEB7ECE0C7
:10F2100008C2CF9370DF813610F0875507C0813464
:10F2200010F0875303C0803308F08053C82FC29575
:10F23000C07F61DF813610F0875507C0813410F040
:10F24000875303C0803308F080538C0FCF9108950B
:10F25000A0E0B0E0EDE2F9EFCBC1C0E2EC2EC4E0FB
:10F26000FC2E8701CFEFDFE0D02EDE18CE01EED1ED
:10F270008F3F51F0F80181938F012197C73FFFE045
:10F28000DF0791F7B8E0DB2EED2DF0E0E05EFB4FFD
:10F290001082DD2009F456C12C9A84B1866184B9AC
:10F2A000209A83E58CBDCAE08FEFD0DEC150E1F734
:10F2B00080E4809318021092190210921A021092A0
:10F2C0001B0210921C0285E980931D02C0E1C3DE7F
:10F2D000D82F289A8FEFBADED13019F0C150B9F784
:10F2E00031C181E480931802B6DE882321F0289A88
:10F2F0008FEFACDEF9CF60E070E0CB01C4DE80912F
:10F300005402863449F480915802863329F41092CD
:10F310000E0210920D0217C06091E4037091E50394
:10F320008091E6039091E70370930E0260930D02C3
:10F33000AADE80915402863409F004C180915802FB
:10F34000863309F0FFC080912B0280930F028091D9
:10F350002C0290912D0220910D0230910E02820F0D
:10F36000931F90930E0280930D0260912E024091A4
:10F37000340250913502649F9001659F300D112435
:10F38000280F391F309317022093160280912F0205
:10F3900090913002A4E096958795AA95E1F7909315
:10F3A000110280931002820F931FA0E0B0E08093BF
:10F3B000120290931302A0931402B0931502C0E0BE
:10F3C000D0E00EE114E0CE01F4E096958795FA9531
:10F3D000E1F720911002309111028217930708F093
:10F3E0009EC06091160270911702680F791F80E02D
:10F3F00090E049DEEC2FEF7080E2E89FF0011124ED
:10F40000E25EFD4F8081882309F489C0853E09F4BE
:10F4100086C0828D938D009709F481C09093040279
:10F4200080930302848D958DA68DB78D80930702FE
:10F4300090930802A0930902B0930A021092060268
:10F440001092050210930C0200930B0231E020E0B1
:10F45000822F90E0DC01A05EBB4F4C91442351F021
:10F46000DF01A80FB91F51E08C91481350E03523FC
:10F470002F5FEECF332309F452C0222309F44FC08B
:10F480008185853409F04BC08085883409F047C0F8
:10F490008285883509F043C049C06701EFEFCE1A75
:10F4A000DE0AB7DEF7018083BA94F0E2CF16F5E00A
:10F4B000DF0609F045C04AD020911E0430911F0498
:10F4C000339530931F0420931E04E0E2EE2EE4E017
:10F4D000FE2E40910702509108026091090270913E
:10F4E0000A02452B462B472BA1F0B110D6CF03DEE5
:10F4F0008A3379F78EDEB82E20910B0230910C0200
:10F500002C5F3F4F30930C0220930B0282DE882346
:10F5100001F380E2E81684E0F80609F017D021969E
:10F52000C115E2E0DE0709F04ECF0CC010921F04B7
:10F5300010921E0470E2E72E74E0F72EB12CC9CFB2
:10F540007601C7CFCDB7DEB7E9E06EC0DF92EF92AC
:10F55000FF920F931F93CF93DF93F999FECFC09142
:10F560001E04D0911F04CE01A0E0B0E023E0FC0116
:10F57000A0935B0020935700E89507B600FCFDCFF1
:10F5800000E214E020E030E0DD24D394F801E190C3
:10F59000F1908F01A9014C0F5D1F60E070E0070141
:10F5A000FA0160935B00D0925700E89511242E5F1A
:10F5B0003F4F2115F1E03F0749F725E0FC01A093FB
:10F5C0005B0020935700E89507B600FCFDCF81E172
:10F5D00080935700E895CDB7DEB7E7E027C02F92BC
:10F5E0003F924F925F926F927F928F929F92AF92D3
:10F5F000BF92CF92DF92EF92FF920F931F93CF9320
:10F60000DF93CDB7DEB7CA1BDB0B0FB6F894DEBFB6
:10F610000FBECDBF19942A88398848885F846E84CC
:10F620007D848C849B84AA84B984C884DF80EE8026
:10F63000FD800C811B81AA81B981CE0FD11D0FB62F
:10F64000F894DEBF0FBECDBFED010895F999FECF4E
:0CF6500092BD81BDF89A992780B50895FD
:040000031000F000F9
:00000001FF
