:107000000C9434380C9451380C9451380C945138F9
:107010000C9451380C9451380C9451380C945138CC
:107020000C9451380C9451380C9451380C945138BC
:107030000C9451380C9451380C9451380C945138AC
:107040000C9451380C9451380C9451380C9451389C
:107050000C9451380C9451380C9451380C9451388C
:107060000C9451380C94513811241FBECFEFD8E046
:10707000DEBFCDBF11E0A0E0B1E0ECE3FEE702C06F
:1070800005900D92A830B107D9F711E0A8E0B1E062
:1070900001C01D92A53BB107E1F70E94173E0C9479
:1070A0001C3F0C9400380F931F939B01AC01E0919F
:1070B0000801F091090122503109410951098681E5
:1070C0009781A085B1850297A109B10928173907D1
:1070D0004A075B0768F4A281B0E00E94A23E0289E1
:1070E000138924893589600F711F821F931F03C084
:1070F00060E070E0CB011F910F9108950F931F93F3
:10710000CF93DF93EC01E0910801F091090119821E
:1071100018826C817D818E819F816130710581052E
:10712000910561F10681178120853185601771070E
:107130008207930718F5611571058105910539F4EA
:107140002081233021F4668577858089918968873D
:1071500079878A879B87611571058105910519F0EB
:107160000E94533804C066857785808991896C8731
:107170007D878E879F8780E090E002C081E090E06D
:10718000DF91CF911F910F910895A4E0B0E0EBEC57
:10719000F8E30C94DD3EE0910801F09109016230C2
:1071A00071058105910508F453C00681178120857A
:1071B0003185601771078207930708F049C0208165
:1071C000223019F02330F1F043C09B013327220F06
:1071D000331F472F582F692F772782859385A485E2
:1071E000B585480F591F6A1F7B1F02E010E0CE01D2
:1071F00001960E94773D892B59F569817A8180E05B
:1072000090E02AC09B012F773327220F331F220FD4
:10721000331FAB01BC01A7E076956795579547955D
:10722000AA95D1F782859385A485B585480F591F06
:107230006A1F7B1F04E010E0CE0101960E94773D9B
:10724000892B31F469817A818B819C819F7004C084
:1072500061E070E080E090E02496E4E00C94F93E78
:10726000A0E0B0E0E6E3F9E30C94D93EEC016A015A
:107270007B0102E010E02EEF31E00E94773D892B88
:1072800039F58881998185359A4A21F526E330E0E0
:10729000B701A601CE010E94773D892B29F4888190
:1072A000998186349144C1F002E010E022E530E09B
:1072B000B701A601CE010E94773D892B39F481E008
:1072C000288139812634314441F406C081E005C06B
:1072D00083E003C082E001C080E0CDB7DEB7E8E024
:1072E0000C94F53EA8E2B0E0E8E7F9E30C94D13E57
:1072F0005C011092090110920801009709F4E4C0A2
:107300000E94D43C80FDE3C040E050E0BA01CE01D1
:1073100001960E943039813009F500E110E02EEB32
:1073200031E040E050E0BA01CE0101960E94773D85
:10733000892B19F081E090E0CCC08D81811103C0D0
:1073400087E090E0C6C049845A846B847C84B30192
:10735000A201CE0101960E94303903C0412C512C6C
:107360003201833039F38111EBCF04E210E02DE0DC
:1073700030E0B301A201CE0101960E94773D892B36
:10738000C9F62A853B8540E050E0211531054105CD
:10739000510521F4288D398D4A8D5B8DAC81B0E08B
:1073A0000E94A23E6B017C018A819B81AC0160E05E
:1073B00070E0440E551E661E771ED5011A964D923A
:1073C0005D926D927C921D97E9811296EC931297D3
:1073D0002D813E8115963C932E9314978F8198852D
:1073E000A0E0B0E00097A105B10521F48C899D894A
:1073F000AE89BF89490104E0969487940A95E1F724
:10740000840120E030E00DA31EA32FA338A78C0138
:107410009D01041B150B260B370BC901B8016C1914
:107420007D098E099F090DA11EA12FA138A5601B02
:10743000710B820B930B2E2F30E040E050E00E9446
:10744000AD3E2E5F3F4F4F4F5F4FD50116962D93A8
:107450003D934D935C931997273FBFE03B07410550
:10746000510508F46DCF273F3F4F4105510510F4FA
:1074700082E001C083E0D5018C93833029F488A198
:1074800099A1AAA1BBA106C0D701C601840D951D73
:10749000A61DB71DF50186879787A08BB18B0DA11F
:1074A0001EA12FA138A5400E511E621E731E4C0C4A
:1074B0005D1C6E1C7F1C428A538A648A758A118205
:1074C000B0920901A092080180E090E002C082E041
:1074D00090E0A896E0E10C94ED3EACE3B0E0E3E789
:1074E000FAE30C94D43EC0900801D0900901C11475
:1074F000D10409F42DC1D60111961C929E012F5C76
:107500003F4F3CA32BA39C017901F90180812F5FA0
:107510003F4F8032C9F38F3209F479011DA21EA2B8
:107520001FA218A6D7018C91813248F4CE01819612
:107530000E947E381982009709F4E0C034C1A0E2AD
:107540007A2E4E01BCE08B0E911CEBA1FCA1DF0159
:10755000CF010B96A817B90711F07D92FBCF90E0F1
:1075600080E028E031E0380FD701A80FB11D8C91E1
:10757000813298F08F3289F08E3209F4EEC0921782
:1075800060F44FE9480F4A3108F48052DF01A90F37
:10759000B11D8C939F5F832FE5CFE30EF11C91E02B
:1075A000813208F090E09387CE0181960E947E3868
:1075B000009709F0F0C029A13AA12F703327F5E018
:1075C000220F331FFA95E1F74DA55EA56FA578A9A7
:1075D00000E210E0CE0101960E94773D892B09F070
:1075E000DCC08981882309F47CC02C8523FD0FC071
:1075F0006BA17CA1FE013196CB01E815F90509F4D8
:1076000079C04191DC013D91CD014317B1F3A090C8
:107610000801B090090109A11AA10F5F1F4F0115C0
:10762000110509F456C08DA59EA5AFA5B8A9009770
:10763000A105B10509F44DC098012F703327232B04
:1076400009F044C00196A11DB11D8DA79EA7AFA74B
:10765000B8AB69A57AA58BA59CA5611571058105B7
:10766000910539F4F501848195810817190788F58A
:107670002DC0D50112962C91422F50E04150510956
:107680009801E4E036952795EA95E1F742235323E4
:10769000452BE1F40E94C5386230710581059105E2
:1076A00008F461C0F5012681378140855185621754
:1076B00073078407950768F469A77AA78BA79CA727
:1076C0000E9453386DA77EA78FA798AB1AA309A372
:1076D00072CF93E080E0292F382F2330310509F055
:1076E00061C0EBA1FCA18385882309F459C023E084
:1076F00030E058C0FB0183858823B9F18981882354
:1077000049F18C8584FD26C08D899E89A0E0B0E07A
:10771000DC01992788274B8D5C8D60E070E0842B1D
:10772000952BA62BB72BF601868F978FA0A3B1A31D
:107730008D8D9E8DAF8DB8A1828F938FA48FB58FC5
:10774000168A178A108E118E81E0818380E003C033
:1077500086E001C083E090E026C0283009F01DCF0C
:1077600098E02BE018CF91E0B5CF24FF19C08D89A8
:107770009E89A0E0B0E0DC01992788274B8D5C8DC5
:1077800060E070E0842B952BA62BB72B8DA39EA3D6
:10779000AFA3B8A7DACE9C01A0CF21E030E002C0B1
:1077A00024E030E0C901EC96EDE00C94F03EA0E05E
:1077B000B0E0EDEDFBE30C94D13E4C017B015A01AE
:1077C000C0910801D0910901FA011182108220971D
:1077D00009F4A3C0898180FFA3C08A8D9B8DAC8DE5
:1077E000BD8D4E895F89688D798D841B950BA60BA5
:1077F000B70BA70160E070E084179507A607B707ED
:1078000008F47C013401412C32E0532EE114F104E0
:1078100009F47CC08E899F89A88DB98DAC01BD010A
:10782000517066277727452B462B472BE1F5DA80E9
:10783000DA94AC01BD0129E0769567955795479597
:107840002A95D1F7D422C9F4892B8A2B8B2B29F4C2
:107850006E8D7F8D88A199A106C06AA17BA18CA1A4
:107860009DA10E94C538623071058105910508F41B
:1078700050C06AA37BA38CA39DA36AA17BA18CA10A
:107880009DA10E945338611571058105910509F488
:1078900040C0DC01CB018D0D911DA11DB11D8EA33A
:1078A0009FA3A8A7B9A72E893F893170C201821B67
:1078B000930B67018E159F0508F46C014EA15FA123
:1078C00068A579A58114910419F480E090E001C0C5
:1078D000C30186010E94773D892BD9F48E899F8947
:1078E000A88DB98D8C0D9D1DA11DB11D8E8B9F8BFB
:1078F000A88FB98F6C0C7D1CEC18FD08F5018081F8
:1079000091818C0D9D1D9183808380CF80E090E0DC
:1079100009C0198281E090E005C086E090E002C0D5
:1079200085E090E0CDB7DEB7E0E10C94ED3EFF924C
:107930000F931F93CF93DF93C82FD42F152F062FAC
:10794000F72E87FF09C040E050E0BA0187E70E94A8
:10795000973C823020F5CF770E94D93D8C2F0E9432
:10796000DE3D8F2D0E94DE3D802F0E94DE3D812F67
:107970000E94DE3D8D2F0E94DE3DC03421F0C834D0
:1079800021F081E003C085E901C087E80E94DE3D67
:10799000CAE00E94DD3D87FF02C0C150D1F7CDB7DC
:1079A000DEB7E5E00C94F83EA4E0B0E0EAEDFCE3DD
:1079B0000C94DB3E0E94CA3D14E60E94D13D11505A
:1079C000E1F71AE00E94DC3D1150E1F740E050E0A1
:1079D000BA0180E40E94973C813009F05EC04AEA17
:1079E00051E060E070E088E40E94973C813051F5FE
:1079F0007E0185E0E80EF11C8E010F5F1F4F0E9493
:107A0000DD3DF80181938F01EE15FF05C1F78B81F4
:107A1000813009F042C08C818A3A09F03EC000E111
:107A200017E240E050E060E070E489EE0E94973C8D
:107A30008823E9F10E94D13D01501109011511057A
:107A400081F72BC040E050E0BA0189EE0E94973CDC
:107A5000823028F422E0F22E39EEE32E04C0FF2417
:107A6000F39491E4E92E00E117E240E050E0BA011E
:107A70008E2D0E94973C882341F00E94D13D0150F9
:107A800011090115110589F708C040E052E060E0D6
:107A900070E080E50E94973C8111F12CF0920A0180
:107AA0000E94DC3D81E0FF20F1F080E01CC040E05E
:107AB00050E0BA018AE70E94973C8111EECF8E0117
:107AC0000F5F1F4F0E94DD3DF80181938F01EE157E
:107AD000FF05C1F7898186FF03C04CE0F42EDECF9D
:107AE00084E0F82EDBCF2496E6E00C94F73EA0E08D
:107AF000B0E0EDE7FDE30C94D93ED82EC92E790114
:107B000080910A0183FD07C0E9E0440F551F661FFD
:107B1000771FEA95D1F781E50E94973C882319F0F9
:107B2000C1E0D0E02FC0C0E4DCE90E94DD3D8F3F22
:107B300021F421972097C9F7F3CF8E3F89F7C2E050
:107B4000D2E0C01BD10BCE19DF09E114F10419F406
:107B5000ED2CFC2C06C00E94DD3D81E0E81AF10806
:107B6000F4CF0E94DD3DF70181937F01015011099F
:107B700001151105B1F70E94DD3D21972097D9F736
:107B8000C0E0D0E00E94DC3DCE01CDB7DEB7E8E03A
:107B90000C94F53E509A239A259A229A2A9A2C9A66
:107BA000089580EA31973197319700008A95D1F78F
:107BB000089502D0589801C0589A8FEF98E087FD39
:107BC0002B9A87FF2B98880F1C9983952D9A2D98B7
:107BD0009A95A9F70895FB0183E080935700E895F3
:107BE0008091570080FDFCCF81E180935700E8959C
:107BF00008950F921F92FB01DA0190E40D901D9001
:107C000081E080935700E89532969A95B9F7FB0189
:107C100085E080935700E8958091570080FDFCCF68
:107C200081E180935700E8951F900F900895CF93BE
:107C3000DF9300D0CDB7DEB78BE091E00E947239C0
:107C400025E331E0F9018FEF93E04E2F421BF999C4
:107C5000FECF92BD81BDF89A50B55F3F39F0519388
:107C60000197823F43E0940781F74DE0E42FF0E075
:107C7000EB5CFE4F1082442319F085E391E002C0D3
:107C800080E091E00E946D3A892B41F11BC0A5E391
:107C9000B1E0C60185539140FC01EA0FFB1FE4915E
:107CA0002D91E21344C0E1E0A53BBE07A9F7F0E83F
:107CB000CF0ED11CE11CF11CC11420E7D206E10457
:107CC000F10481F420E030E0F901459154914F3FF7
:107CD0005F4F09F4FFCFF9010995FCCFC12CD12CDE
:107CE00076011FEF40E850E06FEF70E085E391E030
:107CF0000E94153FAE014F5F5F4F60E870E085E383
:107D000091E00E94D73B29813A812115310579F212
:107D1000522F80E090E0E52FE80F482F420F47FDFB
:107D2000B6CFF0E0EB5CFE4F10830196F4CFC701B5
:107D3000B6010E94EB3D45E351E0C701B6010E9448
:107D4000F93DB5CF0E94063FA59F900DB49F900DC1
:107D5000A49F800D911D11240895A1E21A2EAA1B43
:107D6000BB1BFD010DC0AA1FBB1FEE1FFF1FA217EB
:107D7000B307E407F50720F0A21BB30BE40BF50BE8
:107D8000661F771F881F991F1A9469F76095709571
:107D9000809590959B01AC01BD01CF0108952F9274
:107DA0003F924F925F926F927F928F929F92AF928B
:107DB000BF92CF92DF92EF92FF920F931F93CF93D8
:107DC000DF93CDB7DEB7CA1BDB0B0FB6F894DEBF6F
:107DD0000FBECDBF09942A88398848885F846E8495
:107DE0007D848C849B84AA84B984C884DF80EE80DF
:107DF000FD800C811B81AA81B981CE0FD11D0FB6E8
:107E0000F894DEBF0FBECDBFED010895A29FB00173
:107E1000B39FC001A39F700D811D1124911DB29FBE
:107E2000700D811D1124911D0895DC0101C06D9319
:0C7E300041505040E0F70895F894FFCF57
:087E3C006170702E62696E0096
:040000030000700089
:00000001FF
